:100000004D424E014D3448300106040001002200EB
:100010006000000000C000000000000000000000C0
:100020000000EEEE000000000000000000000000F4
:1000300001000106000000000000000000000000B8
:100040000200010000002D000000000000B40000CC
:10005000030001002D00300000B40000000C00007F
:10006000001C00208D0100000000000000000000C6
:100070000000000000000000000000000000000080
:100080000000000000000000000000000000000070
:10009000000000000000000000000000550000000B
:1000A000810000009D000000590000006D0000006C
:1000B00000000000FEE70000034B01225A70A0235D
:1000C0000022DB051A7070470C0B0020034B012245
:1000D0009A70A0230022DB059A7070470C0B002059
:1000E00008B5044B01221A70034B0022DA7700F0A6
:1000F00059FD08BD0C0B00200800005038B58025C4
:10010000ED052B79DBB2002B0CD130490B604B6035
:100110002B89081C9BB28B608A680C30103107F069
:1001200039FD47E0012B0DD1284BD968002941D07A
:100130005A68186982423DDA5A68501C58602B7A16
:100140008B5437E0022B30D1204CE368002B2AD0AF
:10015000226821698A420CDA22689B5C1BBAEB6038
:10016000A3682068C01880B207F070FD23680133CF
:1001700017E0A2682368201C211CD2180C30103113
:1001800007F008FDE368002B0DD0A16822688A18EB
:10019000A2601B781BBAEB60A06880B207F056FD26
:1001A0000123236006E0EB6004E0032B02D1074B40
:1001B00000225A60C0468023DB0501221A70C04627
:1001C00002221A7000221A7038BDC04600040020B6
:1001D00080230222DB05FF321A600421024AFF312C
:1001E000118000221A70704706000040F8B5A02365
:1001F000DB059B684A4A1F21DBB21160D12B0BD073
:10020000D02B01D80133DBB2A022D2059168FF20A8
:10021000814319439160F1E70023424A42499A1809
:100220008A4204D24149C95804331160F5E7404B72
:10023000404A191D043B934203D200221A600B1C52
:10024000F6E7EFF308823C4B191D043B9A4203D9B1
:100250003A4818600B1CF7E7FFF7BAFF38493948EE
:10026000053989B280B204F079FE374C374D01234D
:100270005B4223716371A371E3712B1C3C331A78C9
:100280002B1C3D331B781B02134398423FD107F0D0
:1002900069FC2F4B2F4918882F4A88420BD06E7D5E
:1002A00018882B7D36023343984204D113889BB2C1
:1002B00023711B0A637113888B421BD0EE7DA87DCE
:1002C000138836023043834214D100200423013BBB
:1002D000DBB2FF2B07D0214EEF18F65C3F79B74217
:1002E000F5D10120F3E7002804D013889BB2A37155
:1002F0001B0AE371637922791B0213438B4206D0F8
:10030000E279A37912021A43124B9A4204D1144B98
:1003100002221A6062B6FEE700F082F8F7E7C046F4
:100320002800005000000020000400203CA900002C
:1003300004040020050B0020800B0020CDCDCDCD86
:1003400000C0000000000000100B0020C0BF000033
:10035000FEB30000FFFF0000BEBF000000B40000BD
:1003600000E100E0014B18607047C046180B002008
:10037000014B18687047C046180B0020014B1860ED
:100380007047C0461C0B0020014B18687047C046E0
:100390001C0B0020014B18687047C046000000206D
:1003A00038B5114C256805F0C3F9A862256805F039
:1003B000C3F9E862256805F0C3F96861256805F0AE
:1003C000C3F9A861256805F0D3F9084923680968CD
:1003D0001A1CE8320E31E861116002221A67D0332C
:1003E00003221A6038BDC046000000201C0B00200C
:1003F00008B502F075FE021E05D10749A9230B714D
:1004000007F058FBFEE7054B1B6803CB04F036FEF4
:10041000FFF7C6FF08BDC046FB040020F003002024
:1004200037B507F0D3F96C46073420700AF000F8AE
:100430000AF05EF802F030FEFFF7DAFF07F0C6F9C7
:10044000051C0E2800D90E25E8B2034B8200D358B4
:10045000211C98472570F1E72C0100200F4B322119
:100460001B680022D9676420191D9A6704318867C8
:10047000CA6702208031086001204860181C0121F1
:10048000943049420160826001618261A83304387E
:100490000160826001611A607047C0460000002060
:1004A000F7B500AF3960786005F00CFC83000A33C3
:1004B000DB08DB006946C91A8D46041C684605F056
:1004C00009FC63000833DB086D46DB00EA1A954639
:1004D000684605F01DFC00226E46111C013C06D347
:1004E000A300EB58C9186300F35AD218F6E72C4C56
:1004F000022025682B1C8C331C1C0C3C2668013800
:10050000632E0ADD002626600126B44676429E60F0
:1005100000261E6166464640AE67266801362660A4
:100520001C698C4200D219619E688E4200D9996084
:100530001C68012C09DD1B4E00241C609E611C629E
:1005400001262C1C08344640E6671C681E6A0134EC
:100550001C60964200D21A629C69944200D99A614A
:10056000043B0028C8D10E4E7C6833683E68996F02
:10057000BD468A009A18111C983190320968126899
:100580008A1A22801A1C0832D26F92009B181A1CF9
:10059000A832A03312681B68D31A3380F7BDC04657
:1005A00000000020FFFF0000F0B585B01F1C0AAB63
:1005B0001B78151C01910393041C04F04FFC1E4B87
:1005C000281C1B680021DA6892000AF033F8019EAB
:1005D000002E0CD0201C05F0DDF9184B281C1B68E0
:1005E000391C5A69002307F0CFFC013EF0E7002CCC
:1005F0000FD1124B1B685F69DB69029305F086F827
:10060000061C05F08DF80299031C321C381C07F0FB
:10061000A3FB281C0021019A07F00AFD039B012B74
:1006200008D1002C06D1054B201C1D6805F0E4FA0A
:10063000EC35286005B0F0BDF0030020000000207C
:10064000F0B589B0059106920793049007F066FB18
:10065000234B80791B6802905A699B6905985A431D
:100660000021920009F0E6FF029F013F7A1C2BD087
:10067000049805F08FF91A4B1E6872690192019B6C
:10068000013B0393F1D3B469164B059AE518039B1C
:100690006343ED18AD005519013C13D3B368019ABB
:1006A0005343E3180133069A9B0098582B68181897
:1006B0002860002F04D102990AF00AF8000428608B
:1006C000043DE9E7039AD9E7079B012B06D1064BC6
:1006D00004981C6805F090FAF034206009B0F0BD71
:1006E000F0030020FFFFFF3F0000002030B5214D48
:1006F00085B02B681A1CCE321178663A002904D1D5
:10070000191CB0310978002901D00021117014782A
:10071000002C1DD0D96E002001919A6B16490292CF
:100720001B6B01AA039303234B707C235B42CB70AA
:1007300010230B7107F0BEF92B680024DA6E196FD5
:100740008A4202DC0132DA6610E0DC6601240DE048
:100750009A6B1B6B0949019202930920642301AA39
:100760000B71039407F0A6F92B68DC66201C05B01A
:1007700030BDC046000000209C010020A3010020E5
:10078000F0B56B4E93B0336804AF1C683A61043423
:100790006400221C0832D2086946D200F860881A28
:1007A0005A68854604325200131C0833DB08DB000C
:1007B000C01A04AD8546B96004A97961081C0021FE
:1007C00009F038FF221C281C002109F033FF594C86
:1007D000F86823685A69191CDB690090281D01908C
:1007E0007869303104300290386903F043FC336893
:1007F00078609A6891001A68236801324A43586900
:10080000002109F017FF2068436D6430036008F091
:100810004FFD2368586900957A69191C01925C3173
:100820003A69303303F08CFDBB689D4607F08EFAC1
:10083000051C07F0E3FD2B7B002B0CD05C3003780C
:10084000002B08D122682623FF33D35C012B02D072
:10085000012004F02DFD336837495A6818684A7042
:100860009A68CB787F250870AB430220802403432D
:1008700064422343CB7053238A700B7101323B696E
:1008800052009A18012007F015F9381C0021202287
:10089000183009F0CFFE3368186859689A683876BE
:1008A0007976BA760533DB7F3969FB767B7F022068
:1008B000AB430132034352008A181C437C77391C36
:1008C0000092002201201831131C07F0B9F802F041
:1008D000E7FBFFF70BFF002826D1164C2368586969
:1008E00005F000F92568281C291C5C31303003F024
:1008F00009FD23682866186E05F052F804F0C0FE62
:100900007A68002A07D12368F8681A1C30321B68FD
:10091000396907F089FA022004F0F8FC2068643095
:1009200008F0C6FC052000E00420BD460FB0F0BD75
:10093000F003002000000020F4040020F0B5940033
:10094000231C0A3385B0DB08DB006946C91A02AFF5
:100950008D4602AA061C7A60101C0021221C09F098
:1009600069FE231C0833DB08DB006946C91A8D4683
:1009700002AD281C221C002109F05CFE0C4C301C2E
:100980002368D96A9A6A5C3300910193291C7B68B9
:1009900008F0B0FC301C02F0D5FB2368301C9A6ACA
:1009A000DB6A291C00937B6807F04EFFBD46F7BD4C
:1009B0000000002070B50C1C151C1E1C08F096F9D8
:1009C0000B4B201C1B68996ADA6A08F08DFA201C10
:1009D00008F046FE291C201C08F080FB291C321C54
:1009E000201C08F0F1FB291C201C03F0B3FA70BD99
:1009F0000000002038B509F0CBFC051C012009F0EF
:100A0000DBFC041C281C04F011FA201C04F01AFA68
:100A100038BD38B509F0A8FD09F0C2FC051C00205E
:100A200009F0CAFC041C281C04F000FA002005F0A0
:100A300003F8201C04F006FA04F01CFC38BD10B5C5
:100A4000A4B08C22041C002101A809F0F3FD01A828
:100A5000211C08F0FBFB08F023FC01A8211C02F07C
:100A60002DFC24B010BD0000F8B5071C07F0C6FC33
:100A7000484E34682379002B02D0012B2CD065E03E
:100A8000454A211C1268EC3112780D68816E226093
:100A9000002905DC2169414B994202D023690133C9
:100AA00023612369934251DDC36E002B4ED1221C7A
:100AB00074321370391CA2690420FFF7C1FD04F0E1
:100AC0004FFC012004F066FF04F0A2FD01239322F5
:100AD00031689A408B542CE02F4B1F687B78236041
:100AE000231CF0331D682069598B013009F094FEF6
:100AF000002906D12369002B03DD231CEC331B687E
:100B0000ED18231CFF335B7B012B0AD13B780222BB
:100B10002360231CEC331D6893235B00E254002305
:100B200007E022691D4B9A4210D0236901332361EB
:100B30000CE031680022081CFF3042730B710A611F
:100B400017490E33101C0B7106F0B4FF3368186898
:100B500005F01EF9041C281C05F03EF9241A01209A
:100B6000002C08DD3368186805F012F9041C281CF5
:100B700005F032F9201A3168932252008B5C012B68
:100B800002D100208854181C04F092FB04F0B2FB40
:100B9000F8BDC046000000201C0B0020FFFFFF7FB7
:100BA000FB04002008B50B4B26221B68FF329A5C21
:100BB000002A0DD11A79012A05D1FF335B7B04206D
:100BC000002B05D102E0002A02D1022004F0BAFE77
:100BD00008BDC04600000020F0B587B007F0B6F8A9
:100BE000071C07F00BFC816EA34B002906D1046F94
:100BF000621E9441E4B2002C05D000E001241A6882
:100C00000021B83205E01A68B8321168FE2901DC0B
:100C1000013111601B6800211A1CCC32158811802B
:100C2000183A029511708C4204D094490968C97C25
:100C3000002958D0181CB3300178C9B2002908D057
:100C400003785BB2022B00D00123137000230370E2
:100C50000EE11E1CB0363578002D09D00125157027
:100C60001A1CB132BC33017031701170196000E18F
:100C7000002C38D1191CBC310D68002D08DD013D58
:100C8000012D01D00D602EE003230C601370F0E005
:100C90001A1CE83212681188794A914223D01A1C32
:100CA000C8321188774A1268D2898A421BD8734D9C
:100CB0002868027C181CB8300068904213DB05AA33
:100CC0001180CA331B887049538002234B70CB704C
:100CD000201C15230B7106F0EDFE674B2A681B687C
:100CE000527CBC331A60654E3368987C002800D073
:100CF000BEE0614D002C22D12A689B7FC43212686D
:100D00009A4214DB61491223201C221C0B7106F04D
:100D1000D1FE2A683068131CC0331968013119608C
:100D2000C07F814203DB1C60B432022313702A6847
:100D30000023111CB231C4320B7013603DE02B68EC
:100D40001A1CBC3210602A321278002A35D0191CC5
:100D5000C831098805AA1180CA331B884A495380C3
:100D600002234B70CB7019230B7106F0A3FE2B6886
:100D70003268191CC8310D88908B1639854214D2FF
:100D8000181CCA300588108D85420ED2908D029DA8
:100D900085420ADA097800290FD1C4331968927F95
:100DA00091420ADA0131196007E001220A70191C28
:100DB0000022C431C0330A601A602F4E3268131CFF
:100DC000E6331B78002B53D13B7B002B4ED0131CFA
:100DD000B0331D78002D4BD1284F106B3B683A681B
:100DE0009B8A118B9C463B68528BDB8A009363463F
:100DF00006F04EFF3B6803909B8C32689C463B6834
:100E0000106BDB8C3A68118C528C0093634606F0B1
:100E10003FFF33681A1CC8321188039ACA339142C3
:100E200007DA1A88824204DA3A680298528D9042B0
:100E300010DB05AA11801B881349538002234B70D5
:100E4000CB70002017230B7106F034FE33680122AB
:100E5000B1331A7033681A1CB1321278002A07D0E5
:100E6000002C05D0B03301221A7002E0B1321370A9
:100E70000125281C07B0F0BD00000020180B002041
:100E8000FFFF00001C0B00209C010020FB04002041
:100E9000F0B58FB000AF3961061C03F0D9FF78615F
:100EA00003F0CAFF9C4DB8602C686846E268131CCA
:100EB0000E33DB08DB00C01A854660686B461218EB
:100EC000FB62131C0E33DB086946DB00C91A5300B2
:100ED0000E33DB08DB008D46C91A684679628D4601
:100EE0000021786309F0A6FBE068616842180121DF
:100EF00052004942786A09F09DFB2369E2688749FC
:100F0000D2189200386909F095FB2B68F86ADA6804
:100F1000796909F04DFB002E14D17F4D804C2B6870
:100F200008201A681B7922706370A3707F235B42CC
:100F3000E370211CD223FA6A237106F0BBFD2B68F3
:100F40001B68BCE040240025FC61BD620021012239
:100F5000F86A05F0D1F9032004F01CFD6E4C7049CD
:100F600023681E6858689A680423CB7051230B715C
:100F70006C4B8A701B6801325B69920048709A184A
:100F800002200E7006F096FD23681B683B63396BE8
:100F9000614B0139B96100D281E01B6859688C4608
:100FA0006646013EB44677D35B4BBA6918683C6924
:100FB00043685D4D534363449A00A2181168A942E7
:100FC000EED03E6B8068574C70432468604464697F
:100FD0000130800000595E0084B23C62201CA142B6
:100FE00003D87D6A611AA95320E07C6AA6190025FE
:100FF000745F7E60013414D07E6BF41825786EB275
:10100000FE60013601DA013503E0FE68002E08DDDE
:10101000013DBB6A444801339BB22570BB6210603E
:101020002CE07D6BEC182578002D01D110600CE0D0
:101030006DB26E1C05D1386A7A68091A11800022D7
:1010400002E0012D01D1FF2222707C6BE1180A78A9
:1010500050B2002806DC7D6A5800405F013007D09E
:10106000002A05D1FE6A0132F3563E2B05DD05E06C
:10107000FC6AE356002B01DD013A0A70264BBD697C
:101080001B687E6B5B687C696B436344F15CE25C6C
:10109000FD6A8A18EA5483E7B869386377E71B6802
:1010A000BC6ADA681B69D3189C4200DB35E7FB6930
:1010B000013BDBB2FB61002B00D047E72DE7013B92
:1010C00011D32A685268013AF9D32968FE6A49683F
:1010D000594389187118BE68F0183F300E780078AF
:1010E00030180870EFE7F86A0021012205F004F9D2
:1010F0002B68211C18681B7920706370A3707F23F4
:101100005B42E37008201D23FA6A237106F0D2FCCB
:10111000BD460FB0F0BDC046F0030020FFFF000049
:10112000F404002000000020FEFF000038B5051C7C
:101130000C1C03F081FE34300078211C43425841DE
:101140002840FFF7A5FE38BDF0B5454E87B000AF8B
:1011500035682624B8607960FF342B5D022B02D1FC
:1011600000232B5502E006F047FB285531683D4D22
:101170000A5D002A11D12B680A2098621020D862DB
:10118000F431122018630A7009F052F909F0B0F92D
:10119000FFF72EF904F0BCFC14E006F0CBFD0026AE
:1011A000067009F09BF92B6803CB03F067FFFFF78C
:1011B000F7F82B6802221A629A620622DA62082283
:1011C0001E611A632B680A26D8699D6A8200111C69
:1011D0000A31C908C9006846401A786185465968CD
:1011E00018686E4341438900331C0A31C90808332B
:1011F000C9006846DB08401AAD00DB00C11A2B1C91
:101200000833DB08DB0085468D463860C91A68461E
:1012100038618D46F9607869002109F00BFA321CBB
:101220003869002109F006FA2A1CF868002109F043
:1012300001FA0D4B00229A603A693868DA60084A70
:1012400018607969F868126859601861125D074979
:1012500090004458B8687968A047BD4607B0F0BD13
:1012600000000020F0030020200B00206801002077
:1012700010B5041C06F042FB06F0A8FAA042FBD011
:1012800009F0B2F8FFF7B4F806F036F910BD000027
:10129000F7B500AF051CFFF7ADFBFFF775F82C4B5A
:1012A000041C1B68DE8906F057FA6B4600207B6041
:1012B00004F0C2FB04F088FB264B1B6831331B781B
:1012C000002B04D00020E081291C00F021FB04F059
:1012D000FBF9C0B206F03AFCFFF762F81E4B0120A2
:1012E0001B68DA681B69D3189B000A33DB08DB0034
:1012F0006A46D21A95466946FFF718FF7B689D46F5
:1013000006F0FCFA06F004FB052815D004D80028E6
:1013100014D003280AD806E006280AD0031C113B83
:10132000DBB2022B0AD801F07FFC07E005F09AFA45
:1013300004E003F09FFF01E003F08AFF06F046FAA5
:10134000A842DFD0FFF765FBBD46E681F7BDC0468A
:101350001C0B0020180B0020F003002098B500AFF4
:10136000041C06F0CBFA0B4B01201B68DA681B69E2
:10137000D3189B000A33DB086A46DB00D21A954675
:101380006946FFF7D3FE06F021FAA042FBD0BD4626
:1013900098BDC046F003002010B5041C06F0AEFA5C
:1013A00001F040FC06F012FAA042FBD010BD10B5CF
:1013B000041C06F0A3FA04F033FC06F007FAA0427E
:1013C000FBD010BD10B5041C06F098FA0220211CB9
:1013D00000F09EFA06F0FAF9A042FBD010BD10B55D
:1013E000041C06F08BFA0120211C00F091FA06F093
:1013F000EDF9A042FBD010BD10B5041C06F07EFA3A
:10140000002004F0C7FA04F025FB06F0DFF9A04243
:10141000FBD010BD10B5041C06F070FA002003F0DC
:101420001FFE002004F0B6FA04F014FB06F0CEF91B
:10143000A042FBD0012003F013FE10BDF0B5A3B015
:1014400002AF386106F05AFA002009F087F809F077
:101450004FF8002004F0F0FA5B4C694623685D68A1
:1014600018681B694543EB180733DB08DB00C91A12
:101470008D4602AAFA6103F0EBFC03F0DDFCFB6988
:101480005D19181C291C7D6104F05CFC23686C4606
:101490005A681B69D3189B000A33DB08DB00E41A87
:1014A000A54602ACBC6106F029FA381C00212022B6
:1014B000203009F0BFF8444C20202368012519682A
:1014C0001A79C15521202221C255CA550533DB7F27
:1014D00025202322D355C35D7F229343FA692B43F2
:1014E000C1190B7000920022131C0420053906F06C
:1014F000A7FA79692A1CF86904F0FEFE002004F0BE
:1015000049FA2568B8696E682B69B4009B199C4636
:101510002E4B04191968BC60002363450CDA9A004D
:10152000B34203DACC69B869A45802E04C6AB868DF
:10153000A45884500133F0E73C1C4034201C0021A7
:10154000202209F077F82968AB6821706670A370D3
:101550000535EA7F7F26E27062790425B2432A438B
:1015600062711A4A013312689B005269211CD31818
:101570000022203400930220131C06F061FA201C84
:101580000021202209F056F8012323700E4B211C64
:101590001B6810201A7905336270A270DB7FBA696C
:1015A000E3706379B3431D43657100920022131CFD
:1015B00006F046FA06F00AF93C69A04200D174E749
:1015C000BD4621B0F0BDC046F00300200000002061
:1015D00010B5041C06F092F906F0F8F8A042FBD012
:1015E00010BD0000F0B58BB000AFB86106F096FBFF
:1015F000584C6E4623689D68DB687D625A00111C5A
:101600000E319B00C9080E33C900DB08DB00761AD7
:10161000B546F61A6D4600216846B5467D61FE6006
:1016200009F008F8002004F0B5F97E6A4A4A2068FB
:101630001568B20052420368BA60321C5A439100E6
:10164000F961B107711A79609107891A3A62013B11
:1016500023D344683E6A3219261C5E437618B400D0
:10166000FE68920034193C61FC69A2420BD03C69CF
:101670000426A418A4466C697642A458B44466466D
:101680003460043AF0E7BE683A6AA419FC617C6AE7
:101690007E68121B3A628919D9E7BC690B2C55D1B7
:1016A000002004F077F92B4B19682B4B08681C6855
:1016B0007B6AB86143439A003A629A07D21A3A6148
:1016C000FB61844666464A68013EB4462ED36546B1
:1016D0005543FE692148B318121852197E693869BA
:1016E0005200B2182D18FE68AD0075199B003D60C0
:1016F0003E6AB3420ED03D68E81865690438066852
:10170000E858301A0025565F864200DA1080043B04
:10171000023AEDE7BD6876193E627D6AFE69761B86
:10172000FE617D683E6976193E61CBE70C49B86978
:101730007E23D2B25B4208704A708A70CB7001205F
:1017400052237A690B7106F0B5F9A9E7BD460BB0D3
:10175000F0BDC046F003002000000020FFFFFF7F27
:10176000F404002010B5041C06F0C8F8201CFFF794
:1017700039FF06F02BF8A042F8D010BD70B5037801
:1017800086B0041C012B2AD103F04AFB6568154C76
:10179000266806F03FF8FF36B07104A806F074F82A
:1017A000684606F03DF869460F22281C08F000FF45
:1017B00023682978DA1DFF321170FF33049A987973
:1017C000059B05F083FA2368FF33DC796408201C4D
:1017D00005F0B0FA201C05F04DFC04F099F9012049
:1017E00006B070BD0000002008B5416803780A4AC1
:1017F0000A4812680068E8320E301060002B03D0EF
:10180000C9B2002000F084F803F05EFFC0B206F019
:101810009DF9022008BDC046000000201C0B0020DE
:1018200008B503680079002805D101201968FFF781
:101830007DFC032004E00138434243410520C01AE7
:1018400008BD0000037A70B506784568002B05D006
:10185000012B06D104F05CF9002303E001230424EA
:1018600001E001230524044A70B21268291C926920
:10187000FEF7E6FE201C70BD00000020037BF7B5DC
:1018800004680679057A0527012B02D104F040F996
:10189000032706F04FFA76B241782268301CA3681D
:1018A0000095FEF781FE381CFEBD0000F0B5174B19
:1018B00087B01A682623FF33D25C0C1C0768466881
:1018C0008568C368002A05D1F8B2311C2A1C00F0D3
:1018D0009DFB16E05A78197812020A439978FFB2F4
:1018E00009040A43D97868460906114305910B2279
:1018F000191D08F05DFE381C311C2A1C059B01F0E7
:10190000C5F82070207807B0F0BDC0460000002068
:10191000F0B5D44C9DB000AF786320687960407C0E
:1019200043000133FB65386503F0BEFE236878662B
:101930005B7CFF22D31A984200DD7B66786E3C6D9B
:10194000041B3C636C4603F0B7FE7C65FC6D684687
:1019500065002B1C0833DB08C34CDB00C01A0123D5
:1019600063707C235B423A1C8546E370211CB123E3
:101970000020643223716E4606F09CF80023211C7F
:101980003C6B5A001819FC6D0133B052A342F7DBCF
:101990000223CB70321CE4B2632300204C700B7125
:1019A000FC6306F087F82B1C7C6D0833A546DB082A
:1019B000DB006846C01A8546C01A6C4685467C65C1
:1019C000B86304F07FF9F861012003F001FD002104
:1019D0002A1CB86B08F02EFE786D00212A1C08F036
:1019E00029FEFC6D6846A400231C0A33DB08DB00DB
:1019F000C01A8546C01AFC6278626C468546C01AD9
:101A00008546BC626C46BC61FC69A400BC600024D5
:101A1000BC640021FA6AB86A08F00CFE786AFF21FB
:101A2000FA6A08F007FE00248E4B7C641B687C6C0D
:101A30001B7C9C4251DA3C6B0026E4B2201C7C618A
:101A400003F047FE03F010FE03F0B8FCBC697D6AAA
:101A50003C62BC6AF86D0136F217C30F86425341EF
:101A6000DBB23B61002B06D179698819C0B203F063
:101A700030FE03F0F9FD6B46FB60BB686A460A3333
:101A8000DB08DB00D01A85466A46FA6404F022F9C6
:101A90000020031CFA69934205DAF96C9A008A580F
:101AA00001338018F6E72368984200D9206029683E
:101AB000884200D2286003F075FC3A6A043501C2FE
:101AC0003A62FB6838699D460434002802D103F06D
:101AD00075FCBFE77C6C0134A6E70025634E2C1C27
:101AE000B96A7A6AA300C858D358C01A864204DD7E
:101AF0003B6B061CE3183B64BC65854200DA051CA1
:101B000003F050FC796DFA6D63000134C8529442C1
:101B1000E6DB281C03F046FC524B1B68DB8998422D
:101B200006DA7C6B012C03D07C6E3C643C6DBC659A
:101B30004F4B1B68E6331B78002B0CD03B6DBC6D04
:101B4000013B9C4207D13B6D01339C4203D17C6E2B
:101B50003C643C6DBC65FEF781FC7C6B012C21D1A3
:101B6000BA6B00237C6D5900615A1088884200D2FC
:101B70001180FC6D01330232A342F3DBBC6D6300C4
:101B8000BC6B1A5BBC6C131CA24200D2231C3649EE
:101B90009BB2FC6BBB64002002234C70CB700871BD
:101BA000BA6B19E0786B304C022808D1F96B04232A
:101BB00000206170E3702071211CBA6927E0281CA5
:101BC00003F0F0FBFA6B80B2B8646270022300206D
:101BD0007A6DE3702071211C05F06CFFBC6D6823E9
:101BE000DC533C6C6A20C453BC6D6E2163007C6D79
:101BF0006C201B5BBC6CC353CC531B4904234B7040
:101C00000223CB703A1CB2230B710020683205F01E
:101C100051FF174EBC6D32686300111CE8317C6DBA
:101C200009681B5B09888B4226D9002924D008F05B
:101C30009BFC041C08F0D0FBC379051C002B06D0CC
:101C4000012005F077FF3368E8331D6026E0002CA3
:101C500024D1084B1B689B7C002B1FD1012005F071
:101C60005DFF1BE01C0B00209C010020FFFFFF7F9D
:101C700000000020180B0020E7321278002A0DD057
:101C80000E4C2068C2899A4208D9002005F052FF04
:101C90000B4B22681B680E32E8331A607C6B002CF9
:101CA00006D13C6CE0B203F014FDBD461DB0F0BDA2
:101CB0007B68063B012B00D8ABE6F2E71C0B00204B
:101CC00000000020F0B585B000920391029008F06A
:101CD0004BFC061C05F0F2FD071C05F0F7FDA04DBE
:101CE00001902B681A1CE4321278BA4220D0002FDF
:101CF00008D09C4900203B23021C0B71022605F0F2
:101D0000D9FE10E00199052400290DD195493C2305
:101D1000381C3A1C0B7105F0CDFE2B68E6331E789B
:101D2000731E9E41F6B201242B68E4331F701DE040
:101D30001A1CE532127801998A4216D0002906D180
:101D4000E6331E78731E9E41F6B23A2301E0392332
:101D5000022684490020021C0B7105F0ABFE2B68A3
:101D6000019AE5331A70012400E0052405F036FDE0
:101D7000071C05F09BFD009B032B02D0002F03D115
:101D800007E00124002F36D0002005F02FFD0124AC
:101D900031E02B68E4331F88002F2CD100990129F2
:101DA00002D0022904D00EE0009805F0B7FE0AE048
:101DB000381C05F0B3FE2B68E7331B78002B02D0EC
:101DC000381C05F0B7FE05F0A3FE2B68071CE633B0
:101DD0001B7883420FD0002802D01123012601E096
:101DE0001223061C5F490020021C0B7105F062FEE5
:101DF0002B68E6331F7008F0B7FBB04238D008F00C
:101E0000B3FB08F0CDFA071C301C08F0C9FA0090AB
:101E100008F0AAFB301C08F0A1FB08F069FB524B4C
:101E20001B68DB7C002B0FD0012C0DD0009B3A1CD3
:101E3000363236330298039906F0CAF8002003F0D0
:101E4000A9FDFEF70BFB06E02B680020CE331870CF
:101E500003F0F2FD0124002005F06CFE2B68002148
:101E60001A1CE7321170414AE83312680E321A60C8
:101E700008F07AFB08F0B0FAC379002B08D005F01F
:101E800053FE2B68E7331A78824201D01870012480
:101E900006F0B4FA061C05F021FD3379834200D028
:101EA000307105F0FDFC3279051C314B002A01D060
:101EB000002200E00278F254AB7A012B2DD12D4A9A
:101EC0006B7A297AB25A1B020B439A4219D1D32258
:101ED000EB799200A979B25A1B020B439A4210D1B6
:101EE000D222EB789200A978B25A1B020B439A4295
:101EF00007D1214A6B792979B25A1B020B439A42C6
:101F000006D0D2229200B018A91C0A2208F050FB79
:101F10001A4A0023B354AB721FE02B7C012B1CD157
:101F2000D522EB7B9200A97BB25A1B020B439A424B
:101F300007D1134A6B7B297BB25A1B020B439A428F
:101F400006D00F4B291CF0180C31062208F030FB8C
:101F50000A4B0122F25400232B74201C05B0F0BD63
:101F600000000020FB040020180B00201C0B0020A8
:101F7000460300004E0300004A0300006203000015
:101F800052030000F0B59BB01C1C0A9304236E465C
:101F90000E9363680022051C0736012032700292FE
:101FA00003920492059206900795089209920B926B
:101FB0000C920D920F93109211921294139214900E
:101FC00015921695179118941993171CB90002AB26
:101FD0003F01D8190B4BCB58311C98470A4B071CB3
:101FE0001A682823FF33D15C012902D10021D15482
:101FF00003E005F0EBFBA842E8D0E068FEF71FFD28
:102000001BB0F0BD7401002000000020F0B5714C41
:10201000C9B001932368171C1A1C0025FF321D71DB
:1020200055731D610E1C009006F0EEF96A4B019984
:102030001B680A950B950C950E910F9510950997B5
:102040000D979A895878FA215043890008F08EFB41
:1020500025683378009AFE35A881934203D005F0B5
:102060004DFC009B337006F0C9F90021051C8C2241
:1020700025A808F0DFFA0021282211A808F0DAFAD2
:1020800003AE002128221BA808F0D4FA00210A225E
:10209000301C08F0CFFAD9239B0025A9E950DA2398
:1020A0009B0011AAEA50DB239B001BA9E950DC230B
:1020B0009B00EE50474B00221B689A6005F040FDE4
:1020C000051C03F001FBA84206D0281C03F001FB0D
:1020D00003226B46DA7258E040490020A623021C16
:1020E0000B7105F0E7FC0198FEF7BEFC21686D4618
:1020F000081CC830CA31FEF7D3F9394B39491B687F
:1021000002205B680B354B700423CB705B230B7193
:102110002368DA6905F0CEFC236833491A1CC832FB
:1021200012880C2006921A1CCA321288CC330792ED
:102130001B8806AA089301230B7105F0BBFC2268DB
:1021400009A91079294A8300D318000108189B694E
:10215000291C98472368B4229A563868B968FFF753
:10216000B1FD052800D02870214B1A68214B9A42F6
:1021700002D003F055FDFEE7164B1F4A1B68996815
:10218000914202D09A6801329A606D460B352B78E5
:10219000104E052B0CD005F02FFB33682621FF31A4
:1021A0005A5C824213D028220121FF3299540EE05A
:1021B00005F022FB32682621FF31535C8342EAD1CD
:1021C00005F004FB009A904200D177E7E3E7287816
:1021D00049B0F0BD000000201C0B0020FB040020D3
:1021E000F00300209C010020A301002074010020C6
:1021F0007C0B0020CDCDCDCDFFFFFF7FF7B5434C4D
:10220000151C236801911A1CB1321278061C002A91
:1022100023D01A1CE6321278002A1ED11A1CCE32A4
:102220001178002919D1B0331B78002B15D1012367
:10223000137002F001FE071C02F0F2FD3A1C031CB1
:1022400036323B33301C019905F0C2FE03F06EFBC1
:10225000022003F077FBFEF701F923681A1CCE3247
:102260001278002A4ED01A1C294F0020B03210706C
:102270003A680190126A011C013A0ED30E265643A9
:10228000B446AC446646B688002EF5D036B201316D
:10229000B042F1DA301C0192EEE71A1CE6321278F5
:1022A000002A12D1012910DD06F0A8F80123836667
:1022B0003B681B6A013B0AD3019EB342FAD00E224F
:1022C0005A430021AA189180F4E7002904D023681A
:1022D0000022D4331A6008E01A1CD432D0331168BB
:1022E0001B68994201DC013111602368191C1A1C1A
:1022F000D431D03209681268914205DDB033012231
:102300001A7001E0D4331A60F7BDC0460000002007
:10231000F0030020F0B5784E99B00468306802AF41
:1023200039602C220021303008F084F9381C00215B
:102330002022183008F07EF9704D2B681868596813
:102340009A6838767976BA760533DB7F7F21FB761B
:102350007B7F01328B4304210B437B7733689200F0
:102360005B69391C9A1800920022131C0220183154
:1023700005F066FB6B46FB602B6818689B68021CC7
:102380005B0002325A43111C0831C9087861C90048
:102390006846401A854602AE5B080021301C3B614E
:1023A00008F048F97B69396901334B4301335B001D
:1023B000321CF3182068A168FEF7E2F9B860FA68E9
:1023C0009546052800D085E02E686846F16A786059
:1023D0000A01131C0833C01A854602A97961081C3A
:1023E000002108F027F9F26A7869E168FEF7A6FA99
:1023F0002B6868469A6A0E235A43131C0833DB087D
:10240000DB00C01A854602AD0021281C08F012F935
:1024100023697869291CE268FEF7CCFAFEF7DCFB39
:10242000374B1B68DB7C002B04D12068A1682A1C79
:10243000FFF7E4FEE168281C00F040FF07F0B4FA63
:1024400083000733DB08DB006946C91A2B4B8D4636
:102450001C6802AAA36AFA607B610E22013B534307
:10246000ED18061C043538617B69013B7B610FD395
:1024700000202B5E002B09DD3969FA6801398800DC
:1024800039611018291D042208F092F80E3DEBE77F
:102490003D1C383500212022281C08F0CBF861684B
:1024A0002068A368697014492870AB700968053406
:1024B000E27FC96A0133EA705B007E22CB18524288
:1024C0006A710093F2B20320291CFB6805F0B8FA88
:1024D0007A68954603F014F903F028FA02F040FFF9
:1024E000012003F057FA03F093F8B8683B68BD4643
:1024F000187017B0F0BDC04600000020F0030020A7
:10250000180B0020F0B505279FB012975F680024D4
:102510000122051C6E4602A81B911C490736069233
:1025200007900A920E930F92139714921693062710
:1025300019921C931D903F23201C221C3470089478
:1025400009940B950C940D9410941194159417976D
:1025500018941A950B7105F0ADFAA20006AB240190
:1025600018190B4B311CD3589847041C05F044F93B
:10257000084B1A682623FF33D35C834203D105F04E
:1025800025F9A842E9D01FB0F0BDC046FB040020E9
:102590007401002000000020F0B595B002AF7B6010
:1025A0003B1C6033061C396101CB79681B780D78C0
:1025B000FA61BB60B14C002D00D0B2E03A691378EB
:1025C000082B0DD103F0A4FA236805209A697168DD
:1025D0002B1CFEF735F83B6905201D70786147E23A
:1025E0006A4605207A6103F0D5F9A54B1B68986906
:1025F0005A69410001324A43131C0833DB08DB00EF
:102600006946C91A8D4602AB291C181CFB6108F0EB
:1026100011F8236872689969F86905F063FD051C73
:1026200005F0D2FE221C012D0ED12368FF3359790B
:10263000002909D1F4301A7A0078904201D8197231
:1026400014E001321A7227E013680022FF335A7136
:102650001A725B7A934207D18A4B70681B68F969DA
:1026600033331A7805F046FE012D15D103F050FAE8
:10267000062003F08FF97868012303707F4B3969D6
:102680001B6800220A70FF337F495A72101CA32373
:102690000B7105F00FFA3FE0784D7A482B6802681D
:1026A000191CFC313332127809685200914214DD52
:1026B000FF331A7A002A10D15C7A002C0DD103F076
:1026C00027FAB3683268062000940121FDF76CFFF9
:1026D0002B68FC331C6003F01BFA2B686B49FC333E
:1026E0001A688A4201D001321A6004F0C5FE04F073
:1026F00061FE644A13683333187802F0E5FD002068
:1027000002F004FEB86802F0E4FF04F077FE02F085
:10271000A5FB3B6EAC300360786905218546796185
:10272000A6E1584D2B68343318782368186002F0FE
:10273000CBFD062003F006F951486B46BB610368E8
:1027400068469A6851001A6802324A43131C0833DB
:10275000DB08DB00C01A854602A97961081C00214C
:1027600007F068FF206800212C22303007F062FF5C
:102770007A693068B1680023FEF702F87861BA69B7
:102780009546052800D073E12B68FA215A8F34331F
:1027900018788900504307F0E9FF3949B8600D689F
:1027A0006846EB6AF8601A01131C0833C01A8546A4
:1027B00002AC201C002107F03DFFEA6A201CF168F2
:1027C000FEF7BCF82E4968460B6800219A6A0E2372
:1027D0005A43131C0833DB08DB00C01A854602ADE0
:1027E000281C07F027FF201C291CF2683369FEF71C
:1027F000E1F800212C1CB961214BBA691B689B6A66
:102800009A4215DABA690A235343F0682288C3183A
:102810001A806288A11C5A80E288201CDA80A28873
:102820000E349A8007F018F8B9690131B961E3E70D
:102830003B69281C1A78F96907F0E2F839690870D1
:10284000FA680B7895465A1E0C4D012A03D82A685F
:102850000021FC325160032B09D0072B18D0012B2B
:1028600000D003E12B680022FC335A60FEE0F869D7
:1028700007F02AFC041E19D00BE0C046000000201F
:10288000F0030020180B0020FB040020FFFFFF7F57
:10289000182404F0B9FF784B1B681B6C1840012307
:1028A000A3401840431E9841404204402A68131C2C
:1028B000FF339979022908D1FC325268B868824204
:1028C00003DD396908220A7000249A79022A3ED170
:1028D000DB795A0733D5182C31D1381C283004F055
:1028E000D3FFFB69F8691A785B78BE8D1B0213432E
:1028F0008278FD8D12041343C278381C12061343EC
:102900001A882430BA845B88FB8406F0D3FF242124
:102910007B5E9E421DDA3A8DB6189E4219DD262254
:10292000BB5E9D4215DA7A8DAD189D4211DD012006
:1029300004F09CFFB88CF98C04F08CFF88E09807B9
:1029400005D51A2C03D1012004F076FF80E0002C7D
:102950007ED14A4D2B681A1CFF329179012202293F
:1029600006D1191CFC314968B868814200DC00229C
:102970003869017808295FD1D2B2002A5CD004F00E
:10298000B5FF00283AD00224381C221C3C492430D0
:1029900007F00EFE381C211C243005F01BF8052022
:1029A00005F048F8381C00212022283007F042FEAC
:1029B000F96928220B7B2D21D3552923DC55CB5DCA
:1029C0007F2293432A20C4551C4380235B421C432F
:1029D000FB69CA1914701A785B78F8691B021343F3
:1029E0008278391C12041343C2782831120613432B
:1029F000002200930520131C05F022F802F096FF38
:102A0000012002F055FC796800240C702B68201C12
:102A10001A1CFC3254601460FF3301225A7104F016
:102A20000BFF201C04F022FF1649A223201C221CAD
:102A30000B7105F03FF81BE0FC335A6812498A42DB
:102A400001D001325A6002F071FF02F059FE0FE02E
:102A5000282202212923D019D155DC5504F0BAFFD0
:102A600002F064FF012002F023FC01E000241DE7D6
:102A70007869BD4613B0F0BD180B0020000000209F
:102A8000D0A70000FB040020FFFFFF7F82B0F0B55D
:102A9000E3B06993DBB207929A075B07DB0F0593FC
:102AA0006B46D20F002526330F1C06921D70061CA4
:102AB00002F0D4F9031CAC331B6812AC03900493EE
:102AC00005F0A2FC6B46A0222733201C5200291CD3
:102AD0001D7007F0AFFD4E4B220A1C705A70220C7D
:102AE000240E9A70DC709D744A4B1A68FF329379F9
:102AF000022B10D1D2791A420DD0474BFA201B6815
:102B000080001B8F584303F067F902F0D1FB02F0FD
:102B1000F1FB02F0F5FD41490020A223021C0B71DC
:102B200004F0C8FF3B78B34202D004F0E7FE3E70E9
:102B3000384B00221B689A6005F002F8041C02F072
:102B4000C3FDA04204D0201C02F0C3FD042431E0E8
:102B5000049F69466B4626312D4A27330097019022
:102B60000798FFF719FD0AAD041C281C04F058FE55
:102B700069AB1A78069F022178008A43059F0243B9
:102B80000420B90082430A4329781A7006231A40A8
:102B90000B409A420ED00EAD281C04F041FE1D4B96
:102BA0001A682B78FF32D3715A079B07D20FDB0FBD
:102BB00005920693174D1A4A2B689968914202D0E4
:102BC0009A6801329A60052C0CD104F015FE2A682F
:102BD0002623FF33D35C834206D104F0F7FDB042D5
:102BE000AAD001E0042C05D0039B049FAC331F60E6
:102BF00002F0EAFE6B4627331B78002B01D002F06F
:102C000095FE201C63B0F0BC08BC02B01847C0465B
:102C1000340B002000000020180B0020FB040020D3
:102C2000FFFFFF7F70470000CB4BF0B51C68A3B0DF
:102C30006368226800AF5A435100D2185200F8630B
:102C40005800131C0833DB08B863DB006846C01A61
:102C500085466B46F96000217B6307F0EBFC6368F7
:102C600022689D005A43D3189A00131C0A33DB08CC
:102C7000DB006846C01A85466B460021FB6207F000
:102C8000D9FC636822689E005A43D3189A00131C2B
:102C90000A33DB08DB006846C01A85466B46FF2115
:102CA000FB6107F0C7FCF86B00210138B86139639C
:102CB000162810D80123A94A8340134206D1A84AF6
:102CC000134208D0A74B1B682E3302E0A54B1B68AC
:102CD00030331B783B63BA6B3B6BAD085208B608C8
:102CE000013B3D61BA607E617B627A6A013200D14C
:102CF0008BE0B869022804D9FB6B113B012B00D98A
:102D00007FE0002002F046FE934B974A1E6815684C
:102D10003368BC6C7B643B623B6A013BBB636DD335
:102D20007468013C611C66D0B368396A6A694B43B8
:102D3000E31801339B009858FB6B032B2AD004DC6B
:102D4000012B06D0022B0BD0EBE7FB6B113B012BC9
:102D5000E7D8E969A3005B58C01AC343DB171840E2
:102D6000BA6B3B69F96A5343E3189B005958FA6AF6
:102D7000401898507B6A002BD3D1B96BBB684B438A
:102D8000E3185B00396BBB6207F0A2FCBA6A7B6B8D
:102D9000D052C6E7B96B3B694B43F96AE21892001F
:102DA0005258BA62824200D2B862B96AFA6AE3182B
:102DB0009B009950BB6B7A69F9695A43A3189B0031
:102DC0003A605A589446824200D984463B68F86972
:102DD000E118890062460A50B86A7F21831AFD2BE8
:102DE00001D85B0899B2BB68BA6B786B5343E318A0
:102DF0005B00195295E7BA6B3A628DE7B86BBC6419
:102E00007864796A013979626FE7534E1A22336820
:102E1000186859687862B9631C690533DB7F381C10
:102E200000214C303B6207F005FC7A6BFB68101CFC
:102E3000D518291CFA6B00F051F9F86B11286CDBDE
:102E400012280BDD132868D10022786B291C03F0AF
:102E500053FABA6B0023FA633B6260E0F96B112905
:102E60000CD13368BA6B5B68013A013BFB603C1CD8
:102E70000023FA634834BB6101200DE03368796AAE
:102E80001B68BA6B013B0139FB603C1C0123796272
:102E9000FA634434BB6100203568F86129687964BD
:102EA0007B6C591E39637964002B34D06A68BA642C
:102EB000BA6C531EBB64002AF2D0386BB969BE6885
:102EC000421838694243F869C1188A18F96A9200B1
:102ED0005058396B3A694E434A4384469A18F86A07
:102EE000920012582168F8689E19760081420EDA25
:102EF0006146FA208B1A800089185843491000292E
:102F000000DC012107F032FC7A6BB052D0E7786B1D
:102F100000233352CCE71C1C01E0B86BF863796ADC
:102F2000BB6B386A3D1C6835FA6B2970AB70E87072
:102F3000391C381C7E235B426A704C311A226E3079
:102F40006B712C7107F034FB281C796B04F0E8FCE2
:102F5000BD4623B0F0BDC046F00300200400400091
:102F600003000300180B002000000020F0B5474EBE
:102F700085B000AF3468396001684068231CB860D0
:102F8000FE3379609989206907F046FC404B0D1C9F
:102F90001B689A6951005A6901324A43131C08336D
:102FA000DB08DB006946C91A8D46F960081C002160
:102FB00007F040FBA169F868BA6805F093F8341C83
:102FC00001280DD13368FF33587302F071F902F014
:102FD00097FB02F0ABFC002002F0DCFC33684BE016
:102FE0002C4EF9683368B8685A7805F083F923687D
:102FF0000022FF335A7302F083FB02F097FC02F0C9
:10300000AFF9012002F0C6FC02F002FBFDF7E4FD7F
:1030100031682268CB78111CFE318989C91AA9420E
:1030200001DD9D422BDC12699A4228DD04F08EFE00
:103030003368426859688A4203DB9A6883689A4217
:1030400003DA2368012274331A70002D04D102F0D0
:1030500087F9281C02F09EFC3368DB789D420ED174
:1030600023681A1C74321278002A04D17A685969CC
:10307000106804F02DFF2368743300221A70396839
:103080000523BD460B7005B0F0BDC0460000002012
:10309000F00300201C0B002008B504F0EBFA08BD7B
:1030A0000C4B10B51B681A6B002A03DD996B521884
:1030B000D10F0BE000218A4208D107490968122488
:1030C000085F9C6B0121844200DB111C683319707E
:1030D00010BDC046000000201C0B002070470000FF
:1030E00008B502F071FC01F0F5FF01F08FFF01F06F
:1030F00043FF0F4B1B681A7A0E4B1B68D033002A14
:1031000001D0022200E003220B491A6000230B7059
:103110000A49A0220B700A49D2050B709363D36B46
:103120003F218B43D36362B603F078F908BDC046F4
:10313000500B00209401002029000050280000506E
:103140002A00005038B5041CFDF724F9051C05F0D1
:103150003BF9291CF4310B78002B24D0124B0022B0
:103160001B68DB6A013B07D3180120180825405F64
:103170000028F7D10122F5E70C4B1B68186B0028DB
:1031800011D19D6B002D0ED1F833002A0AD01A6898
:10319000FE2A01DC01321A601B68052B03DD0023C7
:1031A0000B7000E01A6038BDF00300200000002022
:1031B00070B5051C0C1C161C04F0D4FB002802D0B2
:1031C00001280AD023E00E204643AD19EA88FF23E8
:1031D000FE2A00D8D3B2637119E00E20704328187C
:1031E000C288FF23FE2A00D8D3B263710B220A23C0
:1031F0008256C3560921D31A0822415682568A1A8A
:10320000934202DDA371E27101E0A271E37170BD2E
:10321000F0B587B01D1C0CAB03AC1B78161C0091DD
:103220000C220021071C201C019307F003FA0F2336
:103230006A1C1A4040210A4322700122B256032020
:103240001A406270305672883188667800013340C7
:1032500003436370019BA170E270002B26D122789A
:1032600080235B42134323703A7B01231A40237867
:10327000102112018B4313432370BA88131C12B21E
:10328000FF2A00DDFF232A1C381C211C2371FFF7B5
:103290008FFF009B04229A5E074B1B685D19503517
:1032A000002A01DD012300E000232B70201C04F024
:1032B00069FB07B0F0BDC046F8030020F0B5AA4C8A
:1032C00093B023680B901B68C82004914000FA213A
:1032D0005843890007F04AFA0C9004F049FB236830
:1032E0000126E5331B780996002B65D09F4B049D82
:1032F0001B680B9C9E689F690796DE6806961E6990
:1033000008965E690A96002609960596984B059ED2
:103310001B681B6A9E424FDA2B8811A803806B88BA
:10332000438006F0C7FA0420235E002B3EDD23888D
:1033300010AE33806388301C738006F0BBFA002126
:10334000735E079A9A420ADA0698984207DD0221CC
:10335000725E089E964202DA0A9E964224DC04209F
:103360002A5E002A1DDD834A059E1268902092196C
:1033700080001218127952B2012A12DD079EF21B48
:103380009A420EDA069EF2199A420ADD10AB089EA6
:1033900002201B5EF21B9A4203DA0A9EF2199A423D
:1033A00002DC0023A38001E001260996059E0A3570
:1033B000013605960E34A9E70B9E002404360596C7
:1033C0006B4B1B681B6A9C4200DB8EE1049E11ADB7
:1033D0003388281C2B8073886B8006F06BFA0E23D1
:1033E000059E6343043E0796059E06930023F35E05
:1033F000002B00DC23E107980599038810AE023901
:1034000033800B88301C73800A9106F053FA2B88A6
:1034100032880D93574B0B921A6876881319191C32
:1034200050310E966D88087853490F950968002829
:1034300001D1453100E04631097808914F49575C88
:10344000002F04D0109806F0BDF9071C03E0D62623
:10345000B6009B191F70474BD6201D6880002B19A2
:103460001B181B78012B0FD1059E0227317A049E71
:10347000327A914200D1A9E000200093011C10AAE9
:10348000231CFFF7C5FEA1E0049EDC230422B25EEC
:103490009B00022F09D1002A00DC97E0EB581B5D4E
:1034A000022B00D192E0032790E0012F6AD1002A7D
:1034B00035DDEB581B5D5A1E012A48D8022B2ED051
:1034C000DA239B00EA5810AB0026995FA00012187F
:1034D0008C4603900021505E6646301A0226995FA2
:1034E00040438C460221535E6646F31A5B43244EEA
:1034F000C318B3422CDDDB239B00EB5803980C9ED2
:103500001B589E4224DDD9239B00E858069E0023C9
:10351000009380190499231CFFF77AFE17E0D92342
:103520009B00E858069E079980190E2207F040F884
:10353000DA239B00E858A6000422801910A907F09E
:1035400037F8DB239B00EB5800229A5100E0032759
:10355000084BDB22196892008A58A300D3181A6816
:1035600001321A6032E0C046000000206C0B0020DF
:10357000F0030020F8030020680B00204603000041
:10358000C4090000002F21D1002A1FDDEB581B5D6C
:10359000012B1BD1DB229200AA58A300D2580C9E0B
:1035A000964213DDD9229200A858DA229200AA5836
:1035B000069ED21880190499231C0097FFF728FE55
:1035C00004F0F4F904F0C8F804F0D2F9049E0423DE
:1035D000F35E002B15DD0E9E32B20F9E33B2D31A6E
:1035E000D817089E1B184340B3420ADA0B9E32B22A
:1035F0000D9E33B2D31AD817089E1B184340B3420E
:1036000016DB099E002E13D0032F01D0002F0FD1FF
:10361000002300930798231C049910AAFFF7F8FDD4
:10362000079E3388049E33800A9E3388049E7380ED
:10363000334B1A68DC239B00D3581F5541E0049E8E
:103640000423F35E002B3CDD2D4BDC221B68920033
:103650009A58165D012E21D1DB2189005958A2000C
:1036600089580C9888421BDDD92189005858069941
:1036700000274018DA2189005B5804999A180097AE
:10368000231CFFF7C5FD04F091F904F065F804F080
:103690006FF90096381C391C2A1C06E0022E07D050
:1036A000012300200093011C11AA231CFFF7B0FD89
:1036B000059B049E043B1B883380059B023B1B88B3
:1036C0007380059E01343388049EB380059E738801
:1036D000049EF380059E337A049E3372059E0E3657
:1036E0000596049E0A3604966AE6054B1B689A6E98
:1036F000191C5C310A70DA6604F058F913B0F0BD99
:10370000F8030020F0B5BB4B9BB01B680027069365
:10371000B94B0B901B6811911B6A04970393039C90
:103720000E235C43039A05190F940C952B1C0E97DE
:103730000E3B013A0BD3D988049C8C4200DA0491E9
:103740000425595F0E9F8F42F2DA0E91F0E7AB4CE1
:10375000012123681A1C5232127891401A1C5332EC
:1037600012785433891A1A788B1ADBB21393FCF748
:1037700011FE236810901A1C383212780D922622FE
:10378000FF32815C012903D19D4B1B68F53306E0B4
:103790009322109C5200A25C022A02D139331B787A
:1037A0000D930F9B0B9F039D0E3BFB18013D1C1CB3
:1037B0000793039B08958C27069D0933BF00EA19E0
:1037C0009B00089DD31804340A930595059F013783
:1037D00000D1CBE00027E35F002B00D1BEE0874B98
:1037E000109F1B6826201A1C4732FF3015783A5C60
:1037F000002A04D11A1C608802CA14330CE0012A82
:103800000DD17F4B88261B6876001A1CFC3211698B
:1038100060889A192133FF3304F04BFA061C109B81
:10382000F4331A78754B002A05D01A6829321278B9
:10383000964200DA161C1A68131C48331B78002BBA
:1038400001D164234AE06F48069F2B1C381814905E
:10385000417B1591002921D10025675F64217943BF
:10386000069DCB2080008C4629181D1C7543AC4555
:1038700012DDB74210DC8D68AC460125AC446746CA
:103880008F605F4F3F6880373F78BC4506D1149802
:103890004573159D8D6001E000208860069F5948A2
:1038A0003D18697B002913D00027E15FCB20069FDC
:1038B0008C4680003918B44508DD88680D9F0130BA
:1038C0008860B84204D10020687300E0002088605E
:1038D000069D4C4FE919497B0029B2D0069D8C27E3
:1038E000BF00E919059D4819057D0027E05F002DFF
:1038F00003D00D9F6DB2BD4220DC64214143734370
:1039000099420EDB131C44331B78049D61886B4382
:103910009B11994205DB136C0E9F7B439B119842D0
:103920001CDA0A9D069F8C20002380006380238080
:103930002B603B185A68013A5A600FE0283212781F
:10394000314D724368435343984207DA0A9D00237E
:10395000638023802B604B68013B4B60059F0A9D71
:10396000013F043D05970E3C0A952FE7069C8C25E8
:10397000AD00089E631900225A609A19039F143201
:1039800005920A227A43119C0F9E0B9DA218039266
:10399000AA190C3A0492089A089F6C3252009A189D
:1039A00004320E92089A8C20743252009B1808330D
:1039B0000F930C237B438000069C1B18E31809938C
:1039C000089C013400D1BDE20C9E0C9D0A3E0027EC
:1039D000F35F0E3D0B950A96002B00D135E2059C56
:1039E0000D9A237806320133DBB259B291420DDCD5
:1039F00023700FE0F8030020F0030020680B002084
:103A00006C0B00202F030000102700000D9B059D6C
:103A100004332B70059E0023F356012B09D1079F19
:103A2000039B3A880A3B049C1A80039B2288083B2C
:103A30001A80059E00257557012D65DDA81C032100
:103A400006F0EAFE039CCFB212970A3C022D45D144
:103A5000924B039D1868924B0021625E19680368BF
:103A6000083D9C460026AB5F4E69096940684910D5
:103A7000511ACF170138C91900027940401A7F281E
:103A80000ADD76109E1BF0176746013F36183F028D
:103A90004640BF1B7F2F11DC079E049F0020305E35
:103AA0000021795E801AC91A05F0F0F80B2805D9B3
:103AB0002388079C23802B88049D2B800323013BB4
:103AC0001CD3099F079E5A00BA183088111C5A311E
:103AD000049C0880218860321180F0E7089D06234D
:103AE0006B43069EC91822886E4B49007118CA5252
:103AF000039B083B1A88A4239B00CA52079F049C7F
:103B00003F88248819971894674B1B681A1C9C32AD
:103B10001178012923D19D331B78089D9D421EDA1F
:103B2000109BE6331B88002B19D1109BCE331B78DA
:103B3000002B14D1D4216943594B059E1B68883151
:103B400059180023F3560092584A0B9812683832DD
:103B500012780192039A0A3A00F0B6FC5DE1059FE3
:103B600000257D57012D00DC57E1032D00DC3EE1EF
:103B7000089C06266643129F4A48BC19069F6400AB
:103B80003C19205A032111901298043006F044FE8B
:103B9000C9B289194900A42379189B00E05A414A07
:103BA000CB5A8F5A14909C46042D16D1039B079D27
:103BB0000A3B0020285E00215B5E049DC01A039B27
:103BC000C2178018083B504000215B5E0022AA5EAD
:103BD000D31ADA179B18534013E0079D0020285E84
:103BE0000E9D0023EB5E049DC01A0022AA5E0F9D6D
:103BF000C1170023EB5E4018D31A4840D9175B1851
:103C00004B400899069D2A4AC0186B189B181978D2
:103C1000264A002906D011685A310988884208DCF2
:103C2000002105E011685C310988884201DB01212F
:103C300019701B78002B3DD112688021131C58325B
:103C4000128856331B8800924A0004F021F8154F61
:103C5000079D061C0021695EE05F049F0B1ADD17BB
:103C60005A196A4000257D5FA427BF009446E25F91
:103C7000AD1AEA17AD18554065442B1C321C05F0EF
:103C80009DFE079B321C1880E05F049C2B1C0021CA
:103C9000615E05F093FE049D288084E0F00300201F
:103CA000F80300208A0200006C0B0020680B002043
:103CB00002030000119C149DA1B2CF1B3FB2FB0F69
:103CC000DF197F10AAB215976746D31B1BB2079C5A
:103CD000DD0FEB180025645F049F5B100B94159CAF
:103CE000169300203F5E0B190B9D169C17971BB275
:103CF000EB1A1219179DDF1712B2DB19AA1A7B40B3
:103D0000D717D2197A409B180024802B01DD1C1C88
:103D1000803C12980321053006F07EFD8A4B119AF3
:103D20001F68069D89193B1C533349001E7869188A
:103D300010B25D78854A139B58438B5E7343C0185D
:103D40000B9B6B43C0183B1C52331A7855371041FC
:103D5000119014983B7807B213984743A420800031
:103D6000095E4E43BE19179F16997D437519159E1E
:103D700059437343119F1141134115418022F81893
:103D80006D18231C0B99D20005F018FE079E049FA6
:103D900030808022231C0021795E281CD20005F08F
:103DA0000DFE049C2080039B0A9E063B0021715E51
:103DB0000025585F644D431A2F68DC171B196340B8
:103DC0003C22BA5E05F0FAFD0A9E039B0C9C3080F3
:103DD000043B083C188821882B683C27DA5F431A8B
:103DE000DD175B196B4005F0E9FD208015E0039BB2
:103DF000079E0A3B0022B25E0027DB5F079CD318B8
:103E00005B102380039B049D083B0022AA5E0026D2
:103E10009B5F049FD3185B103B80059C0022A25639
:103E20000D9DAA426CDD0A9E0023F35E002B74DD1B
:103E3000039B063B0027DB5F002B6EDD199D0E9C6C
:103E4000189F0F9E2580378067E0059D0022AA56A7
:103E50000D9EB24230DD039906390027CA5F002A61
:103E600032D0069C8C25AD00089E62199419A07F63
:103E70000130C0B2A077344C40B224683A34247880
:103E8000A04202DD059F3B701EE0039B079C0A3B9E
:103E90001B88049D2380039B0A9E083B1B882B8064
:103EA0000B883380039B043B19880C9B083B1980CB
:103EB00053680133536007E0069C089D244E059F1C
:103EC000621992193B701370089F059C013F039D76
:103ED000079E08970C9F013C0A3D0E3E0E3F05943D
:103EE0000395049C0E9D07960C970F9E099F0E3C10
:103EF000023D023E0C3F04940E950F9609975FE534
:103F000001230A9D5B422B80069E8C27BF00089CE4
:103F1000F3191B1900229A77D6E7069E8C27BF005B
:103F2000F319596801315960074B1B6838331B7806
:103F30009A4201DA059C23709323109D00225B00B6
:103F4000EA54E1E71BB0F0BD680B00208A020000D4
:103F50000203000008B5FFF7D5FB08BDF0B58FB030
:103F6000059007910A920B930024404B1B68DB6A73
:103F70009C4278DA059F2301FB1808201B5E002B6A
:103F80006FD0079FA300FB180327DF5708979B7884
:103F9000013F5BB206930497089F04980137099785
:103FA000B8425EDC069E013E069B01339E4255DC14
:103FB0002E4B04991B6801319A680A9F5143481C93
:103FC00080193D5C013D47D3DB6A9D4244DAAC4237
:103FD00042D0079FA300DB5F254F40003F687F8EE4
:103FE000BC46149FC05B834236DC069F6046C919FD
:103FF00043430131149F4900C95B9B118B422BDA6B
:10400000099F7A43B2180132149F5200D25B934247
:1040100022DAA54202DB2B1C251C1C1C0598210161
:104020000DAF41180A31381C042206F0C1FA059A76
:1040300029015118381C0A3104F090FA00970A9FA0
:10404000231C01970B9F05980297149F07990397CC
:104050002A1C04F0A1FA2C1C0236A5E7049F0237A3
:1040600099E7013481E70FB0F0BDC046F0030020AE
:10407000680B0020F0B59B4B93B01B6811900B921E
:104080001A7B07260C1C0896062A00D80892964A26
:104090001268F4321278002A05D11F7A07970A278E
:1040A000DE5F069606E0914B1B681E7A07960A2093
:1040B0001F5E06978E4D8F492B680B9F1A685E68AE
:1040C0000A709A6804238A7001329200CB70BA1881
:1040D000512302204E700B7103F0ECFC8149002348
:1040E0000968A21D04918049D3770232D3777F26D5
:1040F000621D0968D6772D68E21DD6770E917E493C
:104100006A680968013AD2B209917C490D922A681D
:104110000968013A52B20F9105930093002A00DA20
:10412000A8E00D98530041B20A93002900DA9FE0FD
:10413000AE68571C7743049B01377F18BE00019778
:104140001B780B9FF059002B16D026230E9EFF33B1
:10415000F65C012E05D12E68099F4E43BF18BE5D47
:1041600004E06E68099B56435B189E5D331C434315
:104170000F9E3669734318136B68189F5343CB180F
:104180009B00DE59330C1B1A0198119E4700BB534C
:10419000049F002B58DB0E26BE57B34213DB20686A
:1041A0009E1B861926606669381C013666610F26DB
:1041B000BE570E27C7576068B34201DCDF1B00E023
:1041C000F71BC7196760E768BB4204DDCEB2D7B200
:1041D00010960C97E360089EB3421BDB261C083642
:1041E0001F27F7578F4200DAF177E61D1F27F75791
:1041F0008F4200DDF177A61D1F27F757974200DA9F
:10420000F277661D1F27F757974200DDF277059F6B
:10421000013705971A9E4F00F65B98B20197B44696
:10422000844402901A9F019866463E520A98199F4C
:10423000199E3F5A0298BC4684440A9F6046F05338
:10424000009EF618009611E01026BE57B34206DC19
:10425000A0689E1B8619A660A6690136A66126691C
:10426000B34200DA2361009FFF1A009701395CE72F
:10427000013A53E71E4B00981B680125D96806F0E8
:1042800075FA1F497C235B42221CCB70E0617623C8
:104290001C32281C0B714D7003F00CFC059EA21DF6
:1042A00026621F21631D51561F229A56134B1B680D
:1042B000914201DB1D7301E000221A73109F0C9ED6
:1042C000231C28335E701F70E768079E0120B742E9
:1042D00005DA2369069FD80FFA179F425041C0B2F2
:1042E00013B0F0BD5C0B002000000020640B002028
:1042F000F0030020F4040020600B0020F4030020F1
:104300009C0100200B4B09681A682623FF33D35CFD
:10431000094A1268507B48438011002B01D1137B5E
:1043200004E0012B05D1054B1B68DB79984200DACC
:10433000181C7047000000205C0B0020640B00205C
:10434000F0B595B00C1C1E1C0B92069003F0F2FC0D
:104350005A4F08903A68032151562020411A0220F2
:1043600010564900091A4910554DC9B205912B68DC
:10437000907A19781B790090D27A05980192029070
:1043800072681A9805F02EFF38682B687268067AF2
:1043900019791B780096407A059E019002961B9829
:1043A00005F020FF002118220EA806F043F9A368AB
:1043B0007F22180A190C00260D932272A27240B2B5
:1043C0005AB249B21B162F686672E67205900791C1
:1043D000099304960598824252DC1A9D5300EB180B
:1043E0000A93079B099E501CB34247DCB9680B9D9A
:1043F0004143591801314E00755F5900AC461B9D71
:10440000664669180989761A0A99B4460E8965467E
:10441000A91B089E367BB14213DD0B2565579D42D3
:1044200000DAE3720A2565579D4200DDA372092573
:104430006557954200DA627208256557954200DD9E
:104440002272CD1F072D08D80EADED5C0126AC46BB
:10445000B44466460EADEE5401E0002904DD049D2F
:104460008D4202DA049100E00021BE68069D70438F
:1044700018180130800041510133B3E7021CA9E74D
:104480000DA80EA9069A00F0C1FB0D4E0D49336828
:10449000049D5A68256018684A709A68069D8A705B
:1044A0007C2301325B4292000870CB70AA188323F0
:1044B00005200B7103F0FEFA15B0F0BD700B002063
:1044C000F0030020F4040020F0B5E5B014926AAACD
:1044D00020CA0D901278281C19920A1C0491D0321F
:1044E000483011780078884201D301311170CE4AEA
:1044F0000D9F16680022BA5EB06F0D9D42431214E4
:1045000017920222AA5EF76F7A4312141892012BB7
:1045100039D1049A0021D1321170049AD03213702B
:10452000049B179D189F002201311D60DF605A60B7
:104530001A619A605A619A61DA611A625A629A62E1
:10454000DA6234330429ECD16A9B049D9A8C2233BD
:104550002A63DA886A6659892A1C98321160D989D7
:1045600051631A88291CAA619A880431EA64AA65F1
:104570001A89CA6788310A608A609B892A1CB4320A
:104580001360D36053616A9D002402351A941B9412
:104590000395039DA20000235219181C1A255D43A0
:1045A000049FD15A7D192D6B023369434018082BA3
:1045B000F4D1FA21890006F08BF8682109196A46BE
:1045C00002348852082CE4D11CA80021102206F0E5
:1045D00031F8002534236B43049F20A8FB181B6B84
:1045E000039F0693EB00FB182F0107933F1800244D
:1045F0000799069A085B68231B1950436A46995A23
:1046000006F066F863001CAA9958F850023408189E
:104610009850082CECD10135042DDBD1D02230A8E4
:10462000002106F007F8149DB76F0023EB5E149D80
:104630007B431B1430930223EB5EF26F012653433E
:104640001B1433933DAC21AF03960023049A0793C8
:1046500006931E1C181CF95815684D434019D5685F
:104660004D43761955684D43069949190691FD58F1
:10467000116910336943079D34326D180795402B3B
:10468000E9D1039D1CAAAB009D58291C06F06EF8C9
:10469000291C2060301C06F069F8291CE06006988F
:1046A00006F064F8291C6060079806F05FF8039E26
:1046B0002061012E19D00023049A0593181CFE587E
:1046C0009168103371434018516934327143059E2B
:1046D00076180596402BF2D1291C06F047F8291CC4
:1046E000A060059806F042F86061039D34340135FE
:1046F00003950437042DA8D138AC0025A80020A9C3
:1047000084460A1C624400230992049A0A9308937F
:10471000079306930393181C099ED769F15896696D
:104720004F434E438019039E1033F619176A0396C0
:104730004F43069EF619576A06964F43079EF61991
:10474000976A07964F43089EF619D76A08967943E9
:104750000A9E343276180A96402BDDD167461CAB90
:10476000FE58271C311C06F001F8083F3860002D68
:104770001BD0311C039805F0F9FF271F3860311C4E
:10478000079805F0F3FF6060012D0ED0311C0698EC
:1047900005F0ECFF311C2060089805F0E7FF311CA4
:1047A000A0600A9805F0E2FFE06001353434042D82
:1047B000A4D1049B002130AA8D58521856689768DE
:1047C000D0681D605E60156956699F609769D86002
:1047D0001D615E619F61D069156A566A976AD26AE7
:1047E0003431D8611D625E629F62DA623433D0294F
:1047F000E1D1049C0026251C0835069507966A9B86
:10480000079F3233022F0BD0032F0FD0012F03D07D
:104810001D789A88DB880CE05D781A895B8908E04E
:104820009D789A89DB8904E0F8030020DD781A8AF4
:104830005B8A9C46012D60D0002D4DD0022D79D190
:10484000069E6068366827680111C9198019069F9D
:104850000F9020697F68089673116669CB18011163
:10486000C91911937311CB181293A36A80190A9670
:10487000DE0F1090F618E06A76100596C10F266AD2
:1048800009184910F7187F180397A069E7693E18BF
:10489000206AC70F3F187F10F719E669606ABF19D1
:1048A0003F1805983E180398C70F3F187F10606A9D
:1048B000F719E669361805983618206A3618F01880
:1048C000666A40180590F118E06AC91809181B18A3
:1048D0000E918618139339E0069F26687F68A069B9
:1048E000119612972E1C171813950E950395059582
:1048F0000A95109508950F9528E06668276833118A
:10490000DB19069F0F9626697F6811933311DB1917
:10491000E0691293A369616A4700FF184018109676
:104920007F180026891805900E91139603960A9613
:1049300008960BE0002613960E9603960596371CF4
:104940000A961096129608960F9611961298189B32
:10495000119A1B1A0B93FB171B0F1799DB191B11CD
:104960006344891A0991B801191C0C9305F0FEFEE5
:10497000059A0C991590900105F0F8FE039B0C998F
:104980001690980105F0F2FE1199099B8A0215997B
:104990004B43D3189B1223600F9B16999A01099BD6
:1049A0004B43D3181B019B126360089B06999A0125
:1049B000099B4343D3181B019B120B60129B159953
:1049C0009A020B9B4B43D318069A9B125360109B81
:1049D00016999A010B9B4B43D3181B019B12236121
:1049E0000A9B9A010B9B4343D3181B019B126361E3
:1049F00080231599DB00591A0B1C7B43DA17920DA3
:104A0000D3189B128C46A361002D05D1E561256268
:104A10006562A562E56234E0059B4B43DA17920DAF
:104A2000D3189B12E361169B059A5F427A430E9B53
:104A300099025218D3179B0D9A1892126262022D96
:104A40001BD1039D61464D43EB179B0D5D19AD12C4
:104A50002562039DB6026F43139DAB02FF18FB173F
:104A60009B0DDF19BF12A762039F7843301AC61748
:104A7000B60D30188012E06203E000232362A362C7
:104A8000E362099A0B9B52435B43D318584A934203
:104A900005DC642058430C9905F068FE00E0554899
:104AA000554B4610554D01209E421BDC301C291CE5
:104AB00005F05CFE291C421C5143771AFB17FF18B6
:104AC0005F404F4B4000C05A520078434D4FC919C8
:104AD000761AF11776184E40D15A4E43291C801988
:104AE00005F044FE68430C9905F040FE079F069DC3
:104AF000BE0030AB01373435F0500797343406959B
:104B0000042F00D07BE60024251C6826610036199E
:104B100030AA6F46F35B8858049E58431A236343B8
:104B2000FA21F3181863890005F0D2FD0234451903
:104B3000082CEAD10024049F291C3E19306B05F093
:104B4000C7FD002801D0306301E001233363343412
:104B5000D02CF0D10024049B251C211C201C1A6B96
:104B60001E68013156433018DE6814195643343339
:104B700075190429F3D1211C05F0F8FD211C061C30
:104B8000281C05F0F3FD049D199A2B1CD0331978CD
:104B900001322C6B013391420CDD1A78002A15D1B9
:104BA0006A9A463295788D4210D3128894420DDB72
:104BB000012200E0002200211970012A08D1149E70
:104BC0000D9F33883B8073887B800EE001221A7032
:104BD0000D4B0D9F1B681A1D0833D26FDB6F5643B8
:104BE0005843361400143E80788065B0F0BDC0464E
:104BF00014AE4701FFFFFF7F6F1101001027000077
:104C0000D2A70000F0D8FFFFF8030020F0B54D4B0D
:104C100091B000AF7962196884464B680868BB633D
:104C200043430733DB08DB006C46E41AA5466E46B7
:104C30003863FE626046C078634640B238629B7853
:104C40005BB2BB621E1C3D6AAE4254DC7C6AA35D53
:104C5000082B4ED96546012028560023EB56F861F3
:104C6000B86BFC6A5843301820187863FC69A3427B
:104C70003FDC0624002B09D0886858438019800047
:104C8000145810184568806864192418886801331E
:104C90007861584380198000155810186419F8601D
:104CA0003D6B8068013DB86020185C1EAC4211D09D
:104CB0007C695D1C6543AD19AD00BD615559401956
:104CC000F863B869FC6B15186868AD682418FC6354
:104CD000641900E0841DF8684568032068430419DE
:104CE0000D2044437D6BB86B24122C702D187D630E
:104CF000BCE70136A7E7BB6A64460320205683421F
:104D00001DDC7E6AF05C082817D964460020205616
:104D1000BC6BFD6A44431C192C1966460125755766
:104D2000A8420ADC8D68013045435D1926780135BB
:104D3000AD00AE50BE6BA419EFE70133DCE7BD4612
:104D400011B0F0BDF0030020F0B5304F85B00190F8
:104D500038680A1C031CFF3302909E790B1C143325
:104D600003930023022E2AD1029CFF34E4793442BB
:104D700025D01478012C07D10D7D651BE8172D185F
:104D80004540072D0DD108E0052C12D10D7D641B87
:104D9000E01724184440012C07D1541A0E2C12DDC0
:104DA00013E05578002D06D00DE05478002C0CD07F
:104DB00009E0022C07D0033C012C06D803E0107850
:104DC0000C7DA04201D00133DBB2039D0132AA4227
:104DD000C8D10022022B15D80198012303700B7D46
:104DE000591EC9B2062901D8094A525C3868FF30F9
:104DF0008179022906D1C079084203D0063B022BF3
:104E000000D81A22101C05B0F0BDC04600000020DA
:104E1000E2A70000014B18607047C046500B00200D
:104E2000014B18687047C046500B0020014B1860BA
:104E30007047C0464C0B0020014B18687047C046B5
:104E40004C0B0020014B18607047C046480B0020F7
:104E5000014B18687047C046480B0020014B18688A
:104E60007047C046940100200B4B70B519680B6861
:104E70005D1E0FD34A68013A0AD38E68541C5E4304
:104E8000A419064EA400A4192668C6402660F2E7BD
:104E90002B1CEDE770BDC046F00300200040005021
:104EA0008D23013B002B01D0C046FAE7044B1022B2
:104EB0001B78DBB21807C00F134018437047C04679
:104EC0002B0000500F4BF7B518261E700E4BA02775
:104ED0001E70FFF7E5FFFF050B4B01AC00252C37DB
:104EE00060701D703E70FFF7DBFF064B20703D7059
:104EF0001D7023786278181C504040001340034313
:104F0000D8B2FEBD2A0000502D00005010B50D4B48
:104F100000201B78AA2B12D10B4B1C780B4B64B2D0
:104F200018780B4B40B219780A4B20181A780A4BA4
:104F300049B21B7840188018C01A43425841C0B289
:104F400010BDC04650000200510002005200020095
:104F50005300020054000200550002008023DB02CF
:104F60000022188059809A80C046024B188880B26F
:104F70007047C04606000400154BC02292009858A6
:104F80001449014099509958FF2081434020014322
:104F900099509858104901408020000401439950CD
:104FA000985880210002000A090601439950022204
:104FB0001A6001221A60082104221A601960FC3369
:104FC00000215960054B19690A431A617047C046B0
:104FD00000E100E0FF00FFFFFFFF00FF00ED00E049
:104FE00013B5094A042413780021DBB21C43019154
:104FF0000198F421FF31884205DC1370C04614701B
:1050000001990131F3E713BD0D00005013B50022E3
:105010000192A022D205D06BC021C9000143D16307
:1050200001AB187803218843012108430C24A043D5
:10503000042420433024A043102420433F24204054
:1050400040242043187098780F24A043072420435D
:105050009870D8780143D970019B936113BD00000B
:105060000122A023DB05104002060349986908408D
:10507000104398617047C046FFFFFFFE82B00022D8
:10508000019201301F2201AB1040C9B21870481CB8
:10509000023110400A4092005870DA70019AA02341
:1050A000DB05DA61196A024A0A401A6202B07047E7
:1050B000FFCFFFFF0002064B000A013800225860B4
:1050C0009A6005221A60C0461A68D103FCD5704761
:1050D00010E000E0F0B5534F85B03B681A1C303249
:1050E00015780232196B127833331E780F231407A8
:1050F000994312092D0701922D0F0B1C80222B437F
:1051000052001343484A0395484D1340484A2B40E8
:1051100048491340240F0B400199220413430A0508
:1051200045493607360F0B40009613433206434E6F
:10513000029433401343424AA024E4051340E36041
:10514000FFF74EFF3B68E26831331B781540DB0602
:105150009B0FDB021D43E560E26880239B00134345
:10516000E360E26880239B011343E360029C039D9C
:10517000FFF7CCFE002813D0324F882039781E3438
:10518000C9B205F0F3FA39784443C9B2882005F072
:10519000EDFA0F3545431E3C00230F3D9C4203DBD7
:1051A000231E0F2B00DD0F230F22954200DD151C5F
:1051B000A024E4051F491A40E36812040B4013437E
:1051C000E360EB43E268DB171D400F239A431D4069
:1051D0001543E560E368F022934380221343E360C4
:1051E000E368154A18481340E360E3683340E3601E
:1051F000FFF760FFE26880235B051343E3600099DB
:10520000E2680B0616401E43E6601048FFF752FFA7
:10521000019B09491A05E3680B401343E36005B09D
:10522000F0BDC0464C0B0020FFF9FFFFFFE7FFFF7A
:10523000FFDFFFFFFFFFF0FFFFFF0FFFFFFFFFF0AC
:10524000FFFFFFEF54000200FF0F0000FF6F0000A0
:10525000064A074B12680120D03212681978904034
:10526000021C0A43D2B21A707047C0469401002053
:10527000290000500549064B09681A78D0310968A1
:105280000120884082431A707047C0469401002074
:1052900029000050044B1878044B1B68D0331B685E
:1052A0001841012318407047290000509401002044
:1052B000044B82B0019001AA188092789A7002B0D3
:1052C0007047C0462400005007B500F061FD064B52
:1052D000019001AA188092789A70044B00221A70EB
:1052E000034B0122DA7707BD240000500C0B00208D
:1052F00008000050034B00221A70034B0122DA779A
:105300007047C0460C0B00200800005072B6084BD6
:105310001B5C002B03D1C04662B630BFF6E762B615
:10532000A023DB059968034A0A409A607047C0468B
:105330000C0B0020FFFFF9FF72B6074B1B5C002B24
:1053400002D1C04662B6F7E762B6A023DB059968D2
:10535000024A0A409A6070470C0B0020FFFFF9FFD9
:10536000A023DB055A680121120E58689143034AB5
:10537000090602400A435A607047C046FFFFFFFE1D
:1053800008B5074B1B681A1C3732127838331B7864
:10539000520001325043994005F0E8F908BDC0467B
:1053A0004C0B002008B5044B1B683A3319784900B0
:1053B0000131FFF7E5FF08BD4C0B002008B5A02325
:1053C0000120DB055870FFF7A1FFFFF7C9FF08BDFB
:1053D000F7B5A026041CF605042808D005280ED130
:1053E0005A4B1B681A1C8C321768903305E0574BD8
:1053F0001B681A1C9432176898331B6821E0544BC1
:105400001B685F6A9B6A7361FAF7C4FFE730037831
:10541000002B17D005F0A8F804F0DEFF81787F227A
:1054200011408904019171690B1C4A490B40019993
:1054300019437161C178474B0A40716992040B406E
:1054400013437361A023DB051F611E691F231E40E8
:10545000FFF75CFD00280AD03F4B882019780436FE
:10546000C9B205F083F946430023043E03D4331E3A
:105470001F2B00DD1F23A022D20510691F210B4026
:10548000884303431361032C34D005DC012C2DD059
:1054900013DC002C11D030E0052C0AD005DB062CE3
:1054A0002BD12A4B1D68A23527E0284B1D689C355F
:1054B00023E0264B1D689F351FE0FAF76BFF031CA6
:1054C000CE331B78002B03D0204B1D683B3514E0F6
:1054D000E7300378002B05D005F046F804F07CFF98
:1054E000051D0AE01A4B1D68363506E0184B1D688D
:1054F000393502E0164B1D683C35A023DB055969A0
:1055000028783F22104091430143596168781F2158
:105510005D6908401149C0022940014359611049A1
:10552000640009680C19211C823108785968104000
:105530009143014359608334217858680A4011022D
:10554000084A02400A435A60F7BDC046500B00208B
:105550004C0B0020FFFF03FE54000200FF07FFFF7B
:1055600094010020FFC0FFFF244BF7B51A68244BBD
:105570001B6839331B785B069B0E0193131C313378
:10558000197800238D005519581E5B18002B27D061
:1055900053181B1832331B788024D3185E78A0234D
:1055A000DB055F68E4033C435C60019CB6062404B1
:1055B00000945F68B60EBC46124F64462740009CBC
:1055C00027435F60C046243676008400F65A2C19C3
:1055D000B03426605E680C4C34405C60031CD3E73A
:1055E000131C313309491B780F204B700423CB70F7
:1055F000B023D2180B7102F05DFAF7BD94010020C0
:105600004C0B0020FFFFC0FFFFFFBFFF9C010020ED
:10561000F7B5FFF7A9FF124B00241D682B1C31338F
:105620001E78731C9B005B420093B300EB18019340
:10563000009B043C9C4208D0019B01211F19B037FC
:105640003868FFF79DFE3860F2E706490423CB7007
:10565000B023EA180F204E700B7102F02BFAF7BD41
:10566000940100209C010020044B00225A70A023CA
:10567000DB055A7001221A707047C0460C0B0020DF
:10568000A023DB059968064A0A40802189020A4363
:105690009A60044A0021917001229A707047C046B6
:1056A000FFFFF9FF0C0B0020024B1B68A8331868A2
:1056B0007047C04694010020024B1B68A833186055
:1056C0007047C04694010020A023DB059868C0B253
:1056D000704730B5A023DB059B68DBB283420ED058
:1056E00001DA013300E0013BA022D2059568FF21D9
:1056F0001C1C8D430C40291C21439160EEE730BDFA
:1057000008B50020FFF702FE08BD0000034B1B6830
:1057100037331878400001307047C0464C0B0020EA
:10572000024B1B68383318787047C0464C0B00207A
:10573000004870470010005000487047002000509B
:105740000048704700400050064A074B12681B682B
:105750007D3210789B6801385843044B8000C01894
:105760007047C04694010020F00300200040005024
:10577000054B1A68054B90681B6879331B785843B2
:10578000034B8000C0187047F003002094010020F4
:1057900004400050F0B585B000AFFAF7FBFD5D4B5B
:1057A0001988031CCC331A888A181A805A4B1B6834
:1057B0001A78BB6053B2042B24D1584B1B689E331C
:1057C0001B78FB60FFF7C0FF554B02221968531E80
:1057D0009C4600D29AE04B68013B11D38C6854433D
:1057E0000134E518AD007D60BD68EE183A363678B4
:1057F000FD68A419A4002458EC407D682C50EBE708
:105800006246E4E7052B23D1444B1B68A1331B7888
:10581000FB60FFF799FF424B04221968531E9C4618
:1058200074D34B68013B11D38C6854430134E518A1
:10583000AD007D60BD68EE1852363678FD68A4195B
:10584000A4002458EC407D682C50EBE76246E5E765
:10585000002A45D0022B0BD1CE300378002B03D089
:105860002E4B1B683D3338E02E4B1B68383334E039
:10587000032B03D12B4B1B683E332EE0012B27D18A
:105880006D467D60FFF774FF254B061C1B6868465C
:105890005C68A5002B1C0A33DB08DB00C01A8546B8
:1058A0006B46FB60013C0BD3B86803193A331B7895
:1058B0009B009859FFF776FDFA68A300D050F1E7F6
:1058C000301CF9682A1C04F073FE7C68A54607E0CA
:1058D000062B05D1114B1B68A4331878FFF7C4FAC7
:1058E000104B1B6835331B78002B0FD00C4B1A68FC
:1058F0005368013B0AD310689568591C684309181E
:1059000009488900091800200860F2E7BD4605B083
:10591000F0BDC0465800005094010020500B0020FC
:10592000F00300204C0B00200040005008B5A023DD
:105930000120DB055870FFF7E9FCFFF711FDFFF7C9
:1059400029FF08BD70B5041C104E114D11D1012066
:10595000FFF73EFD336801221A70A023DB056C704F
:105960005C701A70FFF7E2FFFFF7FAFCFFF750FEDA
:105970000224201CFFF72CFD336800221C70A0239A
:10598000DB056A705A7001221A7070BD9401002004
:105990000C0B002008B5FFF7D5FFFFF7C7FF08BDC8
:1059A00010B5A023DB051C6A0005064A000D0104A2
:1059B00022400A431A621A6A120B12031043186239
:1059C00010BDC046FFFF00F073B5174BA0221B6847
:1059D000D2059168D96A2C3391601C78FFF796FA4A
:1059E000124D002812D0124B124A1B7812782E68E2
:1059F00052B25BB20092201C1021D12202F048F971
:105A00002B68AC363060AC331B68E418002C01DA2C
:105A1000002402E0FF2C00DDFF242B68E0B2A83355
:105A20001C60FFF756FE73BD4C0B00209401002054
:105A3000530002005200020008B5002801D00128DE
:105A400001D100F0EBFCFFF7BFFFFFF743FBFFF7CF
:105A5000DDFA08BD70B51F4B0D211B68A0B0DA7AC6
:105A600000230C3AD2B291425B410321C91AA02310
:105A7000DB0558693F2210405C688022D203224334
:105A80005A60421EA023D2B2DB05FF2A11D05E6805
:105A90003F25114C15402D0434402C435C60C0461A
:105AA0000C1C243464001C5B6D465300EC52013A1C
:105AB000E8E75968094A0A4009495A6002234870D0
:105AC000CB700320B3236A460B7101F0F3FF20B0C3
:105AD00070BDC046500B0020FFFFC0FFFFFFBFFF9F
